{
  "_format": "hh-sol-artifact-1",
  "contractName": "Genesis",
  "sourceName": "src/contracts/Genesis.sol",
  "abi": [
    {
      "inputs": [
        {
          "internalType": "uint256",
          "name": "_projectTax",
          "type": "uint256"
        }
      ],
      "stateMutability": "nonpayable",
      "type": "constructor"
    },
    {
      "anonymous": false,
      "inputs": [
        {
          "indexed": false,
          "internalType": "uint256",
          "name": "id",
          "type": "uint256"
        },
        {
          "indexed": false,
          "internalType": "string",
          "name": "actionType",
          "type": "string"
        },
        {
          "indexed": true,
          "internalType": "address",
          "name": "executor",
          "type": "address"
        },
        {
          "indexed": false,
          "internalType": "uint256",
          "name": "timestamp",
          "type": "uint256"
        }
      ],
      "name": "Action",
      "type": "event"
    },
    {
      "inputs": [
        {
          "internalType": "uint256",
          "name": "id",
          "type": "uint256"
        }
      ],
      "name": "backProject",
      "outputs": [
        {
          "internalType": "bool",
          "name": "",
          "type": "bool"
        }
      ],
      "stateMutability": "payable",
      "type": "function"
    },
    {
      "inputs": [],
      "name": "balance",
      "outputs": [
        {
          "internalType": "uint256",
          "name": "",
          "type": "uint256"
        }
      ],
      "stateMutability": "view",
      "type": "function"
    },
    {
      "inputs": [
        {
          "internalType": "uint256",
          "name": "_taxPct",
          "type": "uint256"
        }
      ],
      "name": "changeTax",
      "outputs": [],
      "stateMutability": "nonpayable",
      "type": "function"
    },
    {
      "inputs": [
        {
          "internalType": "string",
          "name": "title",
          "type": "string"
        },
        {
          "internalType": "string",
          "name": "description",
          "type": "string"
        },
        {
          "internalType": "string",
          "name": "imageURL",
          "type": "string"
        },
        {
          "internalType": "uint256",
          "name": "cost",
          "type": "uint256"
        },
        {
          "internalType": "uint256",
          "name": "expiresAt",
          "type": "uint256"
        }
      ],
      "name": "createProject",
      "outputs": [
        {
          "internalType": "bool",
          "name": "",
          "type": "bool"
        }
      ],
      "stateMutability": "nonpayable",
      "type": "function"
    },
    {
      "inputs": [
        {
          "internalType": "uint256",
          "name": "id",
          "type": "uint256"
        }
      ],
      "name": "deleteProject",
      "outputs": [
        {
          "internalType": "bool",
          "name": "",
          "type": "bool"
        }
      ],
      "stateMutability": "nonpayable",
      "type": "function"
    },
    {
      "inputs": [
        {
          "internalType": "uint256",
          "name": "id",
          "type": "uint256"
        }
      ],
      "name": "getBackers",
      "outputs": [
        {
          "components": [
            {
              "internalType": "address",
              "name": "owner",
              "type": "address"
            },
            {
              "internalType": "uint256",
              "name": "contribution",
              "type": "uint256"
            },
            {
              "internalType": "uint256",
              "name": "timestamp",
              "type": "uint256"
            },
            {
              "internalType": "bool",
              "name": "refunded",
              "type": "bool"
            }
          ],
          "internalType": "struct Genesis.backerStruct[]",
          "name": "",
          "type": "tuple[]"
        }
      ],
      "stateMutability": "view",
      "type": "function"
    },
    {
      "inputs": [
        {
          "internalType": "uint256",
          "name": "id",
          "type": "uint256"
        }
      ],
      "name": "getProject",
      "outputs": [
        {
          "components": [
            {
              "internalType": "uint256",
              "name": "id",
              "type": "uint256"
            },
            {
              "internalType": "address",
              "name": "owner",
              "type": "address"
            },
            {
              "internalType": "string",
              "name": "title",
              "type": "string"
            },
            {
              "internalType": "string",
              "name": "description",
              "type": "string"
            },
            {
              "internalType": "string",
              "name": "imageURL",
              "type": "string"
            },
            {
              "internalType": "uint256",
              "name": "cost",
              "type": "uint256"
            },
            {
              "internalType": "uint256",
              "name": "raised",
              "type": "uint256"
            },
            {
              "internalType": "uint256",
              "name": "timestamp",
              "type": "uint256"
            },
            {
              "internalType": "uint256",
              "name": "expiresAt",
              "type": "uint256"
            },
            {
              "internalType": "uint256",
              "name": "backers",
              "type": "uint256"
            },
            {
              "internalType": "enum Genesis.statusEnum",
              "name": "status",
              "type": "uint8"
            }
          ],
          "internalType": "struct Genesis.projectStruct",
          "name": "",
          "type": "tuple"
        }
      ],
      "stateMutability": "view",
      "type": "function"
    },
    {
      "inputs": [],
      "name": "getProjects",
      "outputs": [
        {
          "components": [
            {
              "internalType": "uint256",
              "name": "id",
              "type": "uint256"
            },
            {
              "internalType": "address",
              "name": "owner",
              "type": "address"
            },
            {
              "internalType": "string",
              "name": "title",
              "type": "string"
            },
            {
              "internalType": "string",
              "name": "description",
              "type": "string"
            },
            {
              "internalType": "string",
              "name": "imageURL",
              "type": "string"
            },
            {
              "internalType": "uint256",
              "name": "cost",
              "type": "uint256"
            },
            {
              "internalType": "uint256",
              "name": "raised",
              "type": "uint256"
            },
            {
              "internalType": "uint256",
              "name": "timestamp",
              "type": "uint256"
            },
            {
              "internalType": "uint256",
              "name": "expiresAt",
              "type": "uint256"
            },
            {
              "internalType": "uint256",
              "name": "backers",
              "type": "uint256"
            },
            {
              "internalType": "enum Genesis.statusEnum",
              "name": "status",
              "type": "uint8"
            }
          ],
          "internalType": "struct Genesis.projectStruct[]",
          "name": "",
          "type": "tuple[]"
        }
      ],
      "stateMutability": "view",
      "type": "function"
    },
    {
      "inputs": [],
      "name": "owner",
      "outputs": [
        {
          "internalType": "address",
          "name": "",
          "type": "address"
        }
      ],
      "stateMutability": "view",
      "type": "function"
    },
    {
      "inputs": [
        {
          "internalType": "uint256",
          "name": "id",
          "type": "uint256"
        }
      ],
      "name": "payOutProject",
      "outputs": [
        {
          "internalType": "bool",
          "name": "",
          "type": "bool"
        }
      ],
      "stateMutability": "nonpayable",
      "type": "function"
    },
    {
      "inputs": [],
      "name": "projectCount",
      "outputs": [
        {
          "internalType": "uint256",
          "name": "",
          "type": "uint256"
        }
      ],
      "stateMutability": "view",
      "type": "function"
    },
    {
      "inputs": [
        {
          "internalType": "uint256",
          "name": "",
          "type": "uint256"
        }
      ],
      "name": "projectExist",
      "outputs": [
        {
          "internalType": "bool",
          "name": "",
          "type": "bool"
        }
      ],
      "stateMutability": "view",
      "type": "function"
    },
    {
      "inputs": [],
      "name": "projectTax",
      "outputs": [
        {
          "internalType": "uint256",
          "name": "",
          "type": "uint256"
        }
      ],
      "stateMutability": "view",
      "type": "function"
    },
    {
      "inputs": [
        {
          "internalType": "uint256",
          "name": "id",
          "type": "uint256"
        }
      ],
      "name": "requestRefund",
      "outputs": [
        {
          "internalType": "bool",
          "name": "",
          "type": "bool"
        }
      ],
      "stateMutability": "nonpayable",
      "type": "function"
    },
    {
      "inputs": [],
      "name": "stats",
      "outputs": [
        {
          "internalType": "uint256",
          "name": "totalProjects",
          "type": "uint256"
        },
        {
          "internalType": "uint256",
          "name": "totalBacking",
          "type": "uint256"
        },
        {
          "internalType": "uint256",
          "name": "totalDonations",
          "type": "uint256"
        }
      ],
      "stateMutability": "view",
      "type": "function"
    },
    {
      "inputs": [
        {
          "internalType": "uint256",
          "name": "id",
          "type": "uint256"
        },
        {
          "internalType": "string",
          "name": "title",
          "type": "string"
        },
        {
          "internalType": "string",
          "name": "description",
          "type": "string"
        },
        {
          "internalType": "string",
          "name": "imageURL",
          "type": "string"
        },
        {
          "internalType": "uint256",
          "name": "expiresAt",
          "type": "uint256"
        }
      ],
      "name": "updateProject",
      "outputs": [
        {
          "internalType": "bool",
          "name": "",
          "type": "bool"
        }
      ],
      "stateMutability": "nonpayable",
      "type": "function"
    }
  ],
  "bytecode": "0x60806040523480156200001157600080fd5b506040516200379f3803806200379f8339818101604052810190620000379190620000c5565b336000806101000a81548173ffffffffffffffffffffffffffffffffffffffff021916908373ffffffffffffffffffffffffffffffffffffffff1602179055508060018190555050620000f7565b600080fd5b6000819050919050565b6200009f816200008a565b8114620000ab57600080fd5b50565b600081519050620000bf8162000094565b92915050565b600060208284031215620000de57620000dd62000085565b5b6000620000ee84828501620000ae565b91505092915050565b61369880620001076000396000f3fe6080604052600436106100f35760003560e01c8063a4b2409e1161008a578063d24cd3ec11610059578063d24cd3ec1461037d578063d80528ae146103a8578063dcc60128146103d5578063f0f3f2c814610400576100f3565b8063a4b2409e1461029b578063b531dcba146102d8578063b69ef8a814610315578063c9168b7214610340576100f3565b80638593054b116100c65780638593054b146101c65780638da5cb5b146102035780639a3fa8c71461022e5780639f39a1941461026b576100f3565b8063056c29ee146100f857806336fbad26146101355780633e45c8af146101605780634cd0cb2814610189575b600080fd5b34801561010457600080fd5b5061011f600480360381019061011a919061243d565b61043d565b60405161012c9190612527565b60405180910390f35b34801561014157600080fd5b5061014a610945565b6040516101579190612551565b60405180910390f35b34801561016c57600080fd5b506101876004803603810190610182919061256c565b61094b565b005b34801561019557600080fd5b506101b060048036038101906101ab919061256c565b6109e3565b6040516101bd9190612527565b60405180910390f35b3480156101d257600080fd5b506101ed60048036038101906101e8919061256c565b610be0565b6040516101fa9190612527565b60405180910390f35b34801561020f57600080fd5b50610218610c00565b60405161022591906125da565b60405180910390f35b34801561023a57600080fd5b50610255600480360381019061025091906125f5565b610c24565b6040516102629190612527565b60405180910390f35b6102856004803603810190610280919061256c565b610eda565b6040516102929190612527565b60405180910390f35b3480156102a757600080fd5b506102c260048036038101906102bd919061256c565b611391565b6040516102cf9190612527565b60405180910390f35b3480156102e457600080fd5b506102ff60048036038101906102fa919061256c565b6114ef565b60405161030c9190612527565b60405180910390f35b34801561032157600080fd5b5061032a6116a5565b6040516103379190612551565b60405180910390f35b34801561034c57600080fd5b506103676004803603810190610362919061256c565b6116ab565b60405161037491906127f5565b60405180910390f35b34801561038957600080fd5b506103926117a2565b60405161039f9190612551565b60405180910390f35b3480156103b457600080fd5b506103bd6117a8565b6040516103cc93929190612817565b60405180910390f35b3480156103e157600080fd5b506103ea6117c0565b6040516103f79190612b0c565b60405180910390f35b34801561040c57600080fd5b506104276004803603810190610422919061256c565b611aa3565b6040516104349190612c2b565b60405180910390f35b600080865111610482576040517f08c379a000000000000000000000000000000000000000000000000000000000815260040161047990612caa565b60405180910390fd5b60008551116104c6576040517f08c379a00000000000000000000000000000000000000000000000000000000081526004016104bd90612d16565b60405180910390fd5b600084511161050a576040517f08c379a000000000000000000000000000000000000000000000000000000000815260040161050190612d82565b60405180910390fd5b6000831161054d576040517f08c379a000000000000000000000000000000000000000000000000000000000815260040161054490612dee565b60405180910390fd5b610555612188565b60025481600001818152505033816020019073ffffffffffffffffffffffffffffffffffffffff16908173ffffffffffffffffffffffffffffffffffffffff1681525050868160400181905250858160600181905250848160800181905250838160a0018181525050428160e0018181525050828161010001818152505060078190806001815401808255809150506001900390600052602060002090600b02016000909190919091506000820151816000015560208201518160010160006101000a81548173ffffffffffffffffffffffffffffffffffffffff021916908373ffffffffffffffffffffffffffffffffffffffff160217905550604082015181600201908051906020019061066c92919061220a565b50606082015181600301908051906020019061068992919061220a565b5060808201518160040190805190602001906106a692919061220a565b5060a0820151816005015560c0820151816006015560e082015181600701556101008201518160080155610120820151816009015561014082015181600a0160006101000a81548160ff0219169083600481111561070757610706612902565b5b021790555050506001600a6000600254815260200190815260200160002060006101000a81548160ff021916908315150217905550600860003373ffffffffffffffffffffffffffffffffffffffff1673ffffffffffffffffffffffffffffffffffffffff1681526020019081526020016000208190806001815401808255809150506001900390600052602060002090600b02016000909190919091506000820151816000015560208201518160010160006101000a81548173ffffffffffffffffffffffffffffffffffffffff021916908373ffffffffffffffffffffffffffffffffffffffff160217905550604082015181600201908051906020019061081292919061220a565b50606082015181600301908051906020019061082f92919061220a565b50608082015181600401908051906020019061084c92919061220a565b5060a0820151816005015560c0820151816006015560e082015181600701556101008201518160080155610120820151816009015561014082015181600a0160006101000a81548160ff021916908360048111156108ad576108ac612902565b5b021790555050506001600460000160008282546108ca9190612e3d565b925050819055503373ffffffffffffffffffffffffffffffffffffffff167faee8e5d3bbb2f71a951b5632cee20f7ac487b9f8ab4f66a236f7694b13af7c6a6002600081548092919061091c90612e93565b919050554260405161092f929190612f28565b60405180910390a2600191505095945050505050565b60025481565b60008054906101000a900473ffffffffffffffffffffffffffffffffffffffff1673ffffffffffffffffffffffffffffffffffffffff163373ffffffffffffffffffffffffffffffffffffffff16146109d9576040517f08c379a00000000000000000000000000000000000000000000000000000000081526004016109d090612fb0565b60405180910390fd5b8060018190555050565b60008060048111156109f8576109f7612902565b5b60078381548110610a0c57610a0b612fd0565b5b90600052602060002090600b0201600a0160009054906101000a900460ff166004811115610a3d57610a3c612902565b5b14610a7d576040517f08c379a0000000000000000000000000000000000000000000000000000000008152600401610a749061304b565b60405180910390fd5b60078281548110610a9157610a90612fd0565b5b90600052602060002090600b020160010160009054906101000a900473ffffffffffffffffffffffffffffffffffffffff1673ffffffffffffffffffffffffffffffffffffffff163373ffffffffffffffffffffffffffffffffffffffff1614610b30576040517f08c379a0000000000000000000000000000000000000000000000000000000008152600401610b27906130b7565b60405180910390fd5b600360078381548110610b4657610b45612fd0565b5b90600052602060002090600b0201600a0160006101000a81548160ff02191690836004811115610b7957610b78612902565b5b0217905550610b8782611dc3565b3373ffffffffffffffffffffffffffffffffffffffff167faee8e5d3bbb2f71a951b5632cee20f7ac487b9f8ab4f66a236f7694b13af7c6a8342604051610bcf929190613123565b60405180910390a260019050919050565b600a6020528060005260406000206000915054906101000a900460ff1681565b60008054906101000a900473ffffffffffffffffffffffffffffffffffffffff1681565b600060078681548110610c3a57610c39612fd0565b5b90600052602060002090600b020160010160009054906101000a900473ffffffffffffffffffffffffffffffffffffffff1673ffffffffffffffffffffffffffffffffffffffff163373ffffffffffffffffffffffffffffffffffffffff1614610cd9576040517f08c379a0000000000000000000000000000000000000000000000000000000008152600401610cd0906130b7565b60405180910390fd5b6000855111610d1d576040517f08c379a0000000000000000000000000000000000000000000000000000000008152600401610d1490612caa565b60405180910390fd5b6000845111610d61576040517f08c379a0000000000000000000000000000000000000000000000000000000008152600401610d5890612d16565b60405180910390fd5b6000835111610da5576040517f08c379a0000000000000000000000000000000000000000000000000000000008152600401610d9c90612d82565b60405180910390fd5b8460078781548110610dba57610db9612fd0565b5b90600052602060002090600b02016002019080519060200190610dde92919061220a565b508360078781548110610df457610df3612fd0565b5b90600052602060002090600b02016003019080519060200190610e1892919061220a565b508260078781548110610e2e57610e2d612fd0565b5b90600052602060002090600b02016004019080519060200190610e5292919061220a565b508160078781548110610e6857610e67612fd0565b5b90600052602060002090600b0201600801819055503373ffffffffffffffffffffffffffffffffffffffff167faee8e5d3bbb2f71a951b5632cee20f7ac487b9f8ab4f66a236f7694b13af7c6a8742604051610ec59291906131ab565b60405180910390a26001905095945050505050565b6000803411610f1e576040517f08c379a0000000000000000000000000000000000000000000000000000000008152600401610f1590613233565b60405180910390fd5b600a600083815260200190815260200160002060009054906101000a900460ff16610f7e576040517f08c379a0000000000000000000000000000000000000000000000000000000008152600401610f759061329f565b60405180910390fd5b60006004811115610f9257610f91612902565b5b60078381548110610fa657610fa5612fd0565b5b90600052602060002090600b0201600a0160009054906101000a900460ff166004811115610fd757610fd6612902565b5b14611017576040517f08c379a000000000000000000000000000000000000000000000000000000000815260040161100e9061304b565b60405180910390fd5b60016004600101600082825461102d9190612e3d565b9250508190555034600460020160008282546110499190612e3d565b92505081905550346007838154811061106557611064612fd0565b5b90600052602060002090600b020160060160008282546110859190612e3d565b925050819055506001600783815481106110a2576110a1612fd0565b5b90600052602060002090600b020160090160008282546110c29190612e3d565b925050819055506009600083815260200190815260200160002060405180608001604052803373ffffffffffffffffffffffffffffffffffffffff16815260200134815260200142815260200160001515815250908060018154018082558091505060019003906000526020600020906004020160009091909190915060008201518160000160006101000a81548173ffffffffffffffffffffffffffffffffffffffff021916908373ffffffffffffffffffffffffffffffffffffffff160217905550602082015181600101556040820151816002015560608201518160030160006101000a81548160ff02191690831515021790555050503373ffffffffffffffffffffffffffffffffffffffff167faee8e5d3bbb2f71a951b5632cee20f7ac487b9f8ab4f66a236f7694b13af7c6a834260405161120492919061330b565b60405180910390a2600782815481106112205761121f612fd0565b5b90600052602060002090600b0201600501546007838154811061124657611245612fd0565b5b90600052602060002090600b020160060154106112fb5760016007838154811061127357611272612fd0565b5b90600052602060002090600b0201600a0160006101000a81548160ff021916908360048111156112a6576112a5612902565b5b0217905550600782815481106112bf576112be612fd0565b5b90600052602060002090600b020160060154600360008282546112e29190612e3d565b925050819055506112f282611f60565b6001905061138c565b6007828154811061130f5761130e612fd0565b5b90600052602060002090600b02016008015442106113875760026007838154811061133d5761133c612fd0565b5b90600052602060002090600b0201600a0160006101000a81548160ff021916908360048111156113705761136f612902565b5b021790555061137e82611dc3565b6001905061138c565b600190505b919050565b6000600260048111156113a7576113a6612902565b5b600783815481106113bb576113ba612fd0565b5b90600052602060002090600b0201600a0160009054906101000a900460ff1660048111156113ec576113eb612902565b5b14158061145057506003600481111561140857611407612902565b5b6007838154811061141c5761141b612fd0565b5b90600052602060002090600b0201600a0160009054906101000a900460ff16600481111561144d5761144c612902565b5b14155b61148f576040517f08c379a0000000000000000000000000000000000000000000000000000000008152600401611486906133b9565b60405180910390fd5b6002600783815481106114a5576114a4612fd0565b5b90600052602060002090600b0201600a0160006101000a81548160ff021916908360048111156114d8576114d7612902565b5b02179055506114e682611dc3565b60019050919050565b60006001600481111561150557611504612902565b5b6007838154811061151957611518612fd0565b5b90600052602060002090600b0201600a0160009054906101000a900460ff16600481111561154a57611549612902565b5b1461158a576040517f08c379a000000000000000000000000000000000000000000000000000000000815260040161158190613425565b60405180910390fd5b6007828154811061159e5761159d612fd0565b5b90600052602060002090600b020160010160009054906101000a900473ffffffffffffffffffffffffffffffffffffffff1673ffffffffffffffffffffffffffffffffffffffff163373ffffffffffffffffffffffffffffffffffffffff161480611654575060008054906101000a900473ffffffffffffffffffffffffffffffffffffffff1673ffffffffffffffffffffffffffffffffffffffff163373ffffffffffffffffffffffffffffffffffffffff16145b611693576040517f08c379a000000000000000000000000000000000000000000000000000000000815260040161168a906130b7565b60405180910390fd5b61169c82611f60565b60019050919050565b60035481565b606060096000838152602001908152602001600020805480602002602001604051908101604052809291908181526020016000905b8282101561179757838290600052602060002090600402016040518060800160405290816000820160009054906101000a900473ffffffffffffffffffffffffffffffffffffffff1673ffffffffffffffffffffffffffffffffffffffff1673ffffffffffffffffffffffffffffffffffffffff16815260200160018201548152602001600282015481526020016003820160009054906101000a900460ff161515151581525050815260200190600101906116e0565b505050509050919050565b60015481565b60048060000154908060010154908060020154905083565b60606007805480602002602001604051908101604052809291908181526020016000905b82821015611a9a57838290600052602060002090600b020160405180610160016040529081600082015481526020016001820160009054906101000a900473ffffffffffffffffffffffffffffffffffffffff1673ffffffffffffffffffffffffffffffffffffffff1673ffffffffffffffffffffffffffffffffffffffff16815260200160028201805461187890613474565b80601f01602080910402602001604051908101604052809291908181526020018280546118a490613474565b80156118f15780601f106118c6576101008083540402835291602001916118f1565b820191906000526020600020905b8154815290600101906020018083116118d457829003601f168201915b5050505050815260200160038201805461190a90613474565b80601f016020809104026020016040519081016040528092919081815260200182805461193690613474565b80156119835780601f1061195857610100808354040283529160200191611983565b820191906000526020600020905b81548152906001019060200180831161196657829003601f168201915b5050505050815260200160048201805461199c90613474565b80601f01602080910402602001604051908101604052809291908181526020018280546119c890613474565b8015611a155780601f106119ea57610100808354040283529160200191611a15565b820191906000526020600020905b8154815290600101906020018083116119f857829003601f168201915b505050505081526020016005820154815260200160068201548152602001600782015481526020016008820154815260200160098201548152602001600a820160009054906101000a900460ff166004811115611a7557611a74612902565b5b6004811115611a8757611a86612902565b5b81525050815260200190600101906117e4565b50505050905090565b611aab612188565b600a600083815260200190815260200160002060009054906101000a900460ff16611b0b576040517f08c379a0000000000000000000000000000000000000000000000000000000008152600401611b029061329f565b60405180910390fd5b60078281548110611b1f57611b1e612fd0565b5b90600052602060002090600b020160405180610160016040529081600082015481526020016001820160009054906101000a900473ffffffffffffffffffffffffffffffffffffffff1673ffffffffffffffffffffffffffffffffffffffff1673ffffffffffffffffffffffffffffffffffffffff168152602001600282018054611ba990613474565b80601f0160208091040260200160405190810160405280929190818152602001828054611bd590613474565b8015611c225780601f10611bf757610100808354040283529160200191611c22565b820191906000526020600020905b815481529060010190602001808311611c0557829003601f168201915b50505050508152602001600382018054611c3b90613474565b80601f0160208091040260200160405190810160405280929190818152602001828054611c6790613474565b8015611cb45780601f10611c8957610100808354040283529160200191611cb4565b820191906000526020600020905b815481529060010190602001808311611c9757829003601f168201915b50505050508152602001600482018054611ccd90613474565b80601f0160208091040260200160405190810160405280929190818152602001828054611cf990613474565b8015611d465780601f10611d1b57610100808354040283529160200191611d46565b820191906000526020600020905b815481529060010190602001808311611d2957829003601f168201915b505050505081526020016005820154815260200160068201548152602001600782015481526020016008820154815260200160098201548152602001600a820160009054906101000a900460ff166004811115611da657611da5612902565b5b6004811115611db857611db7612902565b5b815250509050919050565b60005b6009600083815260200190815260200160002080549050811015611f5c576000600960008481526020019081526020016000208281548110611e0b57611e0a612fd0565b5b906000526020600020906004020160000160009054906101000a900473ffffffffffffffffffffffffffffffffffffffff1690506000600960008581526020019081526020016000208381548110611e6657611e65612fd0565b5b90600052602060002090600402016001015490506001600960008681526020019081526020016000208481548110611ea157611ea0612fd0565b5b906000526020600020906004020160030160006101000a81548160ff02191690831515021790555042600960008681526020019081526020016000208481548110611eef57611eee612fd0565b5b906000526020600020906004020160020181905550611f0e828261210d565b600160046001016000828254611f2491906134a6565b925050819055508060046002016000828254611f4091906134a6565b9250508190555050508080611f5490612e93565b915050611dc6565b5050565b600060078281548110611f7657611f75612fd0565b5b90600052602060002090600b02016006015490506000606460015483611f9c91906134da565b611fa69190613563565b9050600460078481548110611fbe57611fbd612fd0565b5b90600052602060002090600b0201600a0160006101000a81548160ff02191690836004811115611ff157611ff0612902565b5b02179055506120506007848154811061200d5761200c612fd0565b5b90600052602060002090600b020160010160009054906101000a900473ffffffffffffffffffffffffffffffffffffffff16828461204b91906134a6565b61210d565b61207a60008054906101000a900473ffffffffffffffffffffffffffffffffffffffff168261210d565b6007838154811061208e5761208d612fd0565b5b90600052602060002090600b020160060154600360008282546120b191906134a6565b925050819055503373ffffffffffffffffffffffffffffffffffffffff167faee8e5d3bbb2f71a951b5632cee20f7ac487b9f8ab4f66a236f7694b13af7c6a84426040516121009291906135e0565b60405180910390a2505050565b60008273ffffffffffffffffffffffffffffffffffffffff16826040516121339061364d565b60006040518083038185875af1925050503d8060008114612170576040519150601f19603f3d011682016040523d82523d6000602084013e612175565b606091505b505090508061218357600080fd5b505050565b60405180610160016040528060008152602001600073ffffffffffffffffffffffffffffffffffffffff16815260200160608152602001606081526020016060815260200160008152602001600081526020016000815260200160008152602001600081526020016000600481111561220457612203612902565b5b81525090565b82805461221690613474565b90600052602060002090601f016020900481019282612238576000855561227f565b82601f1061225157805160ff191683800117855561227f565b8280016001018555821561227f579182015b8281111561227e578251825591602001919060010190612263565b5b50905061228c9190612290565b5090565b5b808211156122a9576000816000905550600101612291565b5090565b6000604051905090565b600080fd5b600080fd5b600080fd5b600080fd5b6000601f19601f8301169050919050565b7f4e487b7100000000000000000000000000000000000000000000000000000000600052604160045260246000fd5b612314826122cb565b810181811067ffffffffffffffff82111715612333576123326122dc565b5b80604052505050565b60006123466122ad565b9050612352828261230b565b919050565b600067ffffffffffffffff821115612372576123716122dc565b5b61237b826122cb565b9050602081019050919050565b82818337600083830152505050565b60006123aa6123a584612357565b61233c565b9050828152602081018484840111156123c6576123c56122c6565b5b6123d1848285612388565b509392505050565b600082601f8301126123ee576123ed6122c1565b5b81356123fe848260208601612397565b91505092915050565b6000819050919050565b61241a81612407565b811461242557600080fd5b50565b60008135905061243781612411565b92915050565b600080600080600060a08688031215612459576124586122b7565b5b600086013567ffffffffffffffff811115612477576124766122bc565b5b612483888289016123d9565b955050602086013567ffffffffffffffff8111156124a4576124a36122bc565b5b6124b0888289016123d9565b945050604086013567ffffffffffffffff8111156124d1576124d06122bc565b5b6124dd888289016123d9565b93505060606124ee88828901612428565b92505060806124ff88828901612428565b9150509295509295909350565b60008115159050919050565b6125218161250c565b82525050565b600060208201905061253c6000830184612518565b92915050565b61254b81612407565b82525050565b60006020820190506125666000830184612542565b92915050565b600060208284031215612582576125816122b7565b5b600061259084828501612428565b91505092915050565b600073ffffffffffffffffffffffffffffffffffffffff82169050919050565b60006125c482612599565b9050919050565b6125d4816125b9565b82525050565b60006020820190506125ef60008301846125cb565b92915050565b600080600080600060a08688031215612611576126106122b7565b5b600061261f88828901612428565b955050602086013567ffffffffffffffff8111156126405761263f6122bc565b5b61264c888289016123d9565b945050604086013567ffffffffffffffff81111561266d5761266c6122bc565b5b612679888289016123d9565b935050606086013567ffffffffffffffff81111561269a576126996122bc565b5b6126a6888289016123d9565b92505060806126b788828901612428565b9150509295509295909350565b600081519050919050565b600082825260208201905092915050565b6000819050602082019050919050565b6126f9816125b9565b82525050565b61270881612407565b82525050565b6127178161250c565b82525050565b60808201600082015161273360008501826126f0565b50602082015161274660208501826126ff565b50604082015161275960408501826126ff565b50606082015161276c606085018261270e565b50505050565b600061277e838361271d565b60808301905092915050565b6000602082019050919050565b60006127a2826126c4565b6127ac81856126cf565b93506127b7836126e0565b8060005b838110156127e85781516127cf8882612772565b97506127da8361278a565b9250506001810190506127bb565b5085935050505092915050565b6000602082019050818103600083015261280f8184612797565b905092915050565b600060608201905061282c6000830186612542565b6128396020830185612542565b6128466040830184612542565b949350505050565b600081519050919050565b600082825260208201905092915050565b6000819050602082019050919050565b600081519050919050565b600082825260208201905092915050565b60005b838110156128b4578082015181840152602081019050612899565b838111156128c3576000848401525b50505050565b60006128d48261287a565b6128de8185612885565b93506128ee818560208601612896565b6128f7816122cb565b840191505092915050565b7f4e487b7100000000000000000000000000000000000000000000000000000000600052602160045260246000fd5b6005811061294257612941612902565b5b50565b600081905061295382612931565b919050565b600061296382612945565b9050919050565b61297381612958565b82525050565b60006101608301600083015161299260008601826126ff565b5060208301516129a560208601826126f0565b50604083015184820360408601526129bd82826128c9565b915050606083015184820360608601526129d782826128c9565b915050608083015184820360808601526129f182826128c9565b91505060a0830151612a0660a08601826126ff565b5060c0830151612a1960c08601826126ff565b5060e0830151612a2c60e08601826126ff565b50610100830151612a416101008601826126ff565b50610120830151612a566101208601826126ff565b50610140830151612a6b61014086018261296a565b508091505092915050565b6000612a828383612979565b905092915050565b6000602082019050919050565b6000612aa28261284e565b612aac8185612859565b935083602082028501612abe8561286a565b8060005b85811015612afa5784840389528151612adb8582612a76565b9450612ae683612a8a565b925060208a01995050600181019050612ac2565b50829750879550505050505092915050565b60006020820190508181036000830152612b268184612a97565b905092915050565b600061016083016000830151612b4760008601826126ff565b506020830151612b5a60208601826126f0565b5060408301518482036040860152612b7282826128c9565b91505060608301518482036060860152612b8c82826128c9565b91505060808301518482036080860152612ba682826128c9565b91505060a0830151612bbb60a08601826126ff565b5060c0830151612bce60c08601826126ff565b5060e0830151612be160e08601826126ff565b50610100830151612bf66101008601826126ff565b50610120830151612c0b6101208601826126ff565b50610140830151612c2061014086018261296a565b508091505092915050565b60006020820190508181036000830152612c458184612b2e565b905092915050565b600082825260208201905092915050565b7f5469746c652063616e6e6f7420626520656d7074790000000000000000000000600082015250565b6000612c94601583612c4d565b9150612c9f82612c5e565b602082019050919050565b60006020820190508181036000830152612cc381612c87565b9050919050565b7f4465736372697074696f6e2063616e6e6f7420626520656d7074790000000000600082015250565b6000612d00601b83612c4d565b9150612d0b82612cca565b602082019050919050565b60006020820190508181036000830152612d2f81612cf3565b9050919050565b7f496d61676555524c2063616e6e6f7420626520656d7074790000000000000000600082015250565b6000612d6c601883612c4d565b9150612d7782612d36565b602082019050919050565b60006020820190508181036000830152612d9b81612d5f565b9050919050565b7f436f73742063616e6e6f74206265207a65726f00000000000000000000000000600082015250565b6000612dd8601383612c4d565b9150612de382612da2565b602082019050919050565b60006020820190508181036000830152612e0781612dcb565b9050919050565b7f4e487b7100000000000000000000000000000000000000000000000000000000600052601160045260246000fd5b6000612e4882612407565b9150612e5383612407565b9250827fffffffffffffffffffffffffffffffffffffffffffffffffffffffffffffffff03821115612e8857612e87612e0e565b5b828201905092915050565b6000612e9e82612407565b91507fffffffffffffffffffffffffffffffffffffffffffffffffffffffffffffffff821415612ed157612ed0612e0e565b5b600182019050919050565b7f50524f4a45435420435245415445440000000000000000000000000000000000600082015250565b6000612f12600f83612c4d565b9150612f1d82612edc565b602082019050919050565b6000606082019050612f3d6000830185612542565b8181036020830152612f4e81612f05565b9050612f5d6040830184612542565b9392505050565b7f4f776e6572207265736572766564206f6e6c7900000000000000000000000000600082015250565b6000612f9a601383612c4d565b9150612fa582612f64565b602082019050919050565b60006020820190508181036000830152612fc981612f8d565b9050919050565b7f4e487b7100000000000000000000000000000000000000000000000000000000600052603260045260246000fd5b7f50726f6a656374206e6f206c6f6e676572206f70656e65640000000000000000600082015250565b6000613035601883612c4d565b915061304082612fff565b602082019050919050565b6000602082019050818103600083015261306481613028565b9050919050565b7f556e617574686f72697a656420456e7469747900000000000000000000000000600082015250565b60006130a1601383612c4d565b91506130ac8261306b565b602082019050919050565b600060208201905081810360008301526130d081613094565b9050919050565b7f50524f4a4543542044454c455445440000000000000000000000000000000000600082015250565b600061310d600f83612c4d565b9150613118826130d7565b602082019050919050565b60006060820190506131386000830185612542565b818103602083015261314981613100565b90506131586040830184612542565b9392505050565b7f50524f4a45435420555044415445440000000000000000000000000000000000600082015250565b6000613195600f83612c4d565b91506131a08261315f565b602082019050919050565b60006060820190506131c06000830185612542565b81810360208301526131d181613188565b90506131e06040830184612542565b9392505050565b7f4574686572206d7573742062652067726561746572207468616e207a65726f00600082015250565b600061321d601f83612c4d565b9150613228826131e7565b602082019050919050565b6000602082019050818103600083015261324c81613210565b9050919050565b7f50726f6a656374206e6f7420666f756e64000000000000000000000000000000600082015250565b6000613289601183612c4d565b915061329482613253565b602082019050919050565b600060208201905081810360008301526132b88161327c565b9050919050565b7f50524f4a454354204241434b4544000000000000000000000000000000000000600082015250565b60006132f5600e83612c4d565b9150613300826132bf565b602082019050919050565b60006060820190506133206000830185612542565b8181036020830152613331816132e8565b90506133406040830184612542565b9392505050565b7f50726f6a656374206e6f74206d61726b656420617320726576657274206f722060008201527f64656c6574650000000000000000000000000000000000000000000000000000602082015250565b60006133a3602683612c4d565b91506133ae82613347565b604082019050919050565b600060208201905081810360008301526133d281613396565b9050919050565b7f50726f6a656374206e6f7420415050524f564544000000000000000000000000600082015250565b600061340f601483612c4d565b915061341a826133d9565b602082019050919050565b6000602082019050818103600083015261343e81613402565b9050919050565b7f4e487b7100000000000000000000000000000000000000000000000000000000600052602260045260246000fd5b6000600282049050600182168061348c57607f821691505b602082108114156134a05761349f613445565b5b50919050565b60006134b182612407565b91506134bc83612407565b9250828210156134cf576134ce612e0e565b5b828203905092915050565b60006134e582612407565b91506134f083612407565b9250817fffffffffffffffffffffffffffffffffffffffffffffffffffffffffffffffff048311821515161561352957613528612e0e565b5b828202905092915050565b7f4e487b7100000000000000000000000000000000000000000000000000000000600052601260045260246000fd5b600061356e82612407565b915061357983612407565b92508261358957613588613534565b5b828204905092915050565b7f50524f4a4543542050414944204f555400000000000000000000000000000000600082015250565b60006135ca601083612c4d565b91506135d582613594565b602082019050919050565b60006060820190506135f56000830185612542565b8181036020830152613606816135bd565b90506136156040830184612542565b9392505050565b600081905092915050565b50565b600061363760008361361c565b915061364282613627565b600082019050919050565b60006136588261362a565b915081905091905056fea2646970667358221220cffdbba242a459759d1f9b9fe7f296b7cbb2389bfd9d2c482300b4f6c94b1dbd64736f6c634300080b0033",
  "linkReferences": {},
  "deployedLinkReferences": {}
}